:0200000460009A
:100000004643464200000156000000000103030081
:1000100000000000000000000000000000000000E0
:1000200000000000000000000000000000000000D0
:1000300000000000000000000000000000000000C0
:1000400000000000010408000000000000000000A3
:100050000000800000000000000000000000000020
:100060000000000000000000000000000000000090
:100070000000000000000000000000000000000080
:10008000EB04180A063204260000000000000000FD
:10009000050404240000000000000000000000002F
:1000A0000000000000000000000000000000000050
:1000B0000604000000000000000000000000000036
:1000C0000000000000000000000000000000000030
:1000D00020041808000000000000000000000000DC
:1000E0000000000000000000000000000000000010
:1000F0000000000000000000000000000000000000
:10010000D8041808000000000000000000000000F3
:100110000204180804200000000000000000000095
:1001200000000000000000000000000000000000CF
:10013000600400000000000000000000000000005B
:1001400000000000000000000000000000000000AF
:10015000000000000000000000000000000000009F
:10016000000000000000000000000000000000008F
:10017000000000000000000000000000000000007F
:10018000000000000000000000000000000000006F
:10019000000000000000000000000000000000005F
:1001A000000000000000000000000000000000004F
:1001B000000000000000000000000000000000003F
:1001C000000100000010000001000000000000001D
:1001D000000001000000000000000000000000001E
:1001E000000000000000000000000000000000000F
:1001F00000000000000000000000000000000000FF
:10020000FFFFFFFFFFFFFFFFFFFFFFFFFFFFFFFFFE
:10021000FFFFFFFFFFFFFFFFFFFFFFFFFFFFFFFFEE
:10100000D10020432914006000000000000000000F
:10101000201000600010006000D40060000000009C
:101020000000006000E0000000000000FFFFFFFF84
:10103000FFFFFFFFFFFFFFFFFFFFFFFFFFFFFFFFC0
:10104000FFFFFFFFFFFFFFFFFFFFFFFFFFFFFFFFB0
:10105000FFFFFFFFFFFFFFFFFFFFFFFFFFFFFFFFA0
:10106000FFFFFFFFFFFFFFFFFFFFFFFFFFFFFFFF90
:10140000884207D0904205D251F8043B40F8043B93
:101410008242F9D8704700BF884204D2002340F8C6
:10142000043B8142FBD87047664B4FF42A01664A61
:1014300066482DE9F0475A641864654A99639546F1
:10144000BFF34F8FBFF36F8F00F0C8F9614B0820D7
:10145000614A6249C3F854016148FFF7D1FF614A0C
:1014600061496248FFF7CCFF61496248FFF7D4FF4A
:10147000614C62494FF470000023614A086044F8EF
:1014800023200133B02BFAD15E4B80215E4A03F852
:10149000011B9342FBD14F4D4FF080385B494FF019
:1014A000FF325B4B0026DFF8A4A1DFF8A4911C609B
:1014B000C5F80481C5F800A1C5F8F480C5F8F0901E
:1014C0000B68544F43F4E0230B60FB693D4923F064
:1014D0007F0343F04003FB617B6A23F07F0343F00B
:1014E00040037B628A66CA660A674A6700F07CF935
:1014F000494A4A4B6320A2630321E363484A494BAC
:10150000106000F160401E6042F8041C00F6A170FB
:101510004549464AC3F8082D0B68454A43F0807395
:101520000B601368434943F00103136003680B60C9
:1015300000F0AAFBC5F804813F48C5F800A1C5F832
:10154000F480C5F8F09000F05BFDF96E3B4A41F481
:1015500040513B4BF9661660C2F80861C2F8186149
:10156000C2F82861C2F838619A6BD20708D442F6F3
:101570001562344959651A659A6B42F001029A6303
:101580002F4A314C936843F00113936000F09EF9A9
:1015900000F0F8F800F024FD00F0A8FB00F020F9BE
:1015A0002368132BFCD900F02FFC2368B3F5967F3A
:1015B000FBD300F017F900F017FD00F00DFD30BF70
:1015C000FDE700BF00C00A40AFAAAAAA070020009A
:1015D0000000072000800D40C897000038220060FE
:1015E00000000000C016002004BA006000000020C7
:1015F00020210020C01600200014002088ED00E00B
:10160000F972000000E400E0A0E400E024ED00E056
:1016100008ED00E000C00F40CD890000D189000036
:1016200014E000E018E000E0FCED00E00000202005
:10163000001000E0242000200046C32300400840A2
:1016400000400D400000C056282000201B1018202C
:101650000C0D111310B41BB9134B1B6F9B0420D43A
:1016600000F03F00104B22F0604221F0604140F456
:1016700089101C461867C3F88010C3F890201A6FB1
:1016800022F480521A67236F074A002BFBDAD2F844
:101690007011064B0B40C2F87031136F23F4803386
:1016A00013675DF8044B704700800D40FF7F7FFF9C
:1016B0002DE9F0412F4F002542690124B96B4FF00D
:1016C000020E16684FF4303821F47C010369DFF80C
:1016D000B0C041F48021B963316857683943316043
:1016E0004FF00111244EC3F810E01D61C3F848C04B
:1016F0005C629E624FF66106C3F82C809F6C1F658A
:101700001D6299651C61017E1C4B02EB0111097A77
:1017100003EB011189680E60017E02EB01110C7A66
:10172000CD6803EB041149680D60017E02EB0111E5
:101730000C690CB149692160417E4FF6610402EBEE
:10174000011191F8281003EB011189680C60417EAA
:1017500002EB011191F82840C96A03EB04135B689E
:101760001960437E02EB0312136B0BB1526B1A60CC
:10177000BDE8F08100C00F40B80B0505F80400205B
:101780003B372819114B1249D86E0A4640F44030B5
:1017900030B4D86640F23765D86EA02440F440706B
:1017A000D8664D648C64936C1B06FCD4094B40F2E4
:1017B0003760A0211A4658649964936C13F0800333
:1017C000FBD1054A137030BC704700BF00C00F400A
:1017D00000400C4000800C405C200020704700BF9F
:1017E000704700BF704700BFF0B5244A0020244B6B
:1017F0004FF0100C234C1126DFF8C8E012272060B0
:101800000125C2F800C0C3F800E01660DFF8B8E0B8
:101810001D4EC3F800E01D4917601E6041F0150120
:101820001B4F1C4E17601E601B4F1C4E17601E6026
:101830001B4F11601B4E1C491F6016601B4F196027
:101840001B4E1C4917601E601B4F11601B4E1C492C
:101850001F60166019602560BFF34F8FBFF36F8F55
:10186000C3F8B001BFF34F8FBFF36F8F52F8883CBE
:1018700043F4403342F8883CF0BD00BF9CED00E0EB
:10188000A0ED00E094ED00E0090010002021002010
:101890001300200021000207140000202500081377
:1018A000090000101600202027000B13170000402D
:1018B00033001013180000602F000B071900007090
:1018C0002F000B133F00001025000803F0B58D4BCF
:1018D00018228D4E01208D4948F20C7E8C4D4FF020
:1018E000FF378C4C83B0C3F85C12C3F860520025FC
:1018F000C3F86412C3F868424FF40054C3F86C6232
:101900008549C3F87062C3F87462C3F87862834E85
:10191000DA661A675A679A67DA67C3F88020C3F8ED
:101920008420C3F8882040F20562C1F82C03C1F876
:101930003003C1F83403C1F83803C1F83C03C1F8DF
:1019400050032946B36976481840764B03437648DE
:10195000B361D6F8843043F00C03C6F88430022615
:10196000036833430360036803EA0E0E6F4B4EEACD
:101970000303DFF8F0E103606D4B4760DEF80870A9
:101980003B406C4F43F000538360C36823F07803FF
:10199000C360036A1F40684B3B43664F0362036AA0
:1019A0001F40654B3B43654F43628762C762DEF869
:1019B000B830634F23F03F0343F00103C0F8B83061
:1019C000DEF8BC30DFF884E123F03F0343F001038D
:1019D000C0F8BC30056104660767C0F88020446623
:1019E0004767C0F884200468564B24F00204564A26
:1019F0000460C0F818E0C66143F8041B9342FBD1B1
:101A0000494B1A68194642F001021A600B68464AAF
:101A100013F00103FAD14D4E022540F2F56440F275
:101A2000664040F299414A4F966142F20146D561C3
:101A300040F23545C2F8004242F20124C2F81002D9
:101A40000120C2F820121146C2F8307207F15A473D
:101A5000C2F8346207F51377C2F840523D4E3E4D4E
:101A6000C2F85072C2F85462C2F86052C2F86442BE
:101A7000C2F8A030C2F8A430C2F8B0004B692A4ABC
:101A8000DD07FBD5012300244FF48030114653615C
:101A9000C2F8A040C2F8A400C2F8B0304B69224A94
:101AA000DC07FBD5012300244FF4003011465361BD
:101AB000C2F8A040C2F8A400C2F8B0304B691A4A7C
:101AC000D807FBD501230024244811465361C2F8EE
:101AD000A040C2F8A400C2F8B0304B69124ADB073C
:101AE000FBD5D2F8003145F60D5121209BB2506153
:101AF0008B4239D01A4B00221A605A609A60DA6021
:101B000003B0F0BD00801F40F9700100F9B0010082
:101B1000F9100100F900010000841F4000C00F40CF
:101B2000FFFCFF1F000300A000402A401200FFFF3F
:101B3000FF37F70000FFF07C40000080FF000F83BC
:101B40006300020000422A4000432A40F05AF05A43
:101B50009F041830063201263806180A04000300D4
:101B6000C420002000802A4000244FF4802001235C
:101B70001146C2F8A040C2F8A400C2F8B0304B69C8
:101B80003B4ADF07FBD501234FF400040020114638
:101B90005361C2F8A040C2F8A400C2F8B0304B694B
:101BA000334ADE07FBD501234FF400044FF48030A5
:101BB00011465361C2F8A040C2F8A400C2F8B03088
:101BC0004B692B4ADD07FBD501234FF400044FF48A
:101BD000003011465361C2F8A040C2F8A400C2F818
:101BE000B0304B69224ADC07FBD501234FF40004D7
:101BF000204811465361C2F8A040C2F8A400C2F8C0
:101C0000B0304B691A4AD807FBD5D2F8003145F6F7
:101C10000D5121209BB250618B4210D0164B0822EF
:101C20004FF400041A7015490020154A0123009052
:101C3000521A1448224400F0C7F903B0F0BD4FF423
:101C400000044FF4802101231046C2F8A040C2F8DE
:101C5000A410C2F8B03043690549DB07FBD5012069
:101C6000054B10224FF0807448611A70DBE700BF0B
:101C700000402A40040003005D20002000000070A6
:101C800000000070C4200020F0B4174A40274FF431
:101C900080314FF480564FF400554FF4404443F2E6
:101CA0004200136913F0020F06D0946151619061F4
:101CB000136913F0020FF8D113F4005F01D15561DD
:101CC000EFE713F4805F01D15661EAE7002BE8DA11
:101CD00013F4803F01D09161E3E75B0601D45761C3
:101CE000DFE7F0BC704700BF00800D40394A032099
:101CF0003949F3EE095A13689FED386A23F001035E
:101D0000DFED376AF0B4136000241061D1F8E030E1
:101D1000344FD8B2C3F30B211B0D334E07EE100A1C
:101D200005EE101A07EE903A304BB8EEC55A304D1A
:101D3000B8EEC77A3060F8EEE77A29602D4937EEC1
:101D4000466A2D4E77EEC57A2C4877EE666A2C4DA2
:101D500037EE657A26EE276AC7ED007A66EEA76A47
:101D6000176867EE277A83ED007AC6EE075A86EE8B
:101D7000876AC7EE876A35EE857AFCEEC77A36EE5B
:101D8000057A17EE903ABCEEC77A47EA035376EE2F
:101D9000857A136017EE103AD2F81071FCEEE77AEC
:101DA00001EA0341394317EE903AC2F81011C3F328
:101DB0000B03D2F810110B43C2F81031136843F033
:101DC000020313603470C0F840510E4B0122F0BC86
:101DD0001A60704780810D4000441F400000AA42F5
:101DE0000000B44210200020082000200C20002019
:101DF000042000200000FF0F40E400E00014002059
:101E0000BD74000008E100E0304B40F6617270B52F
:101E1000C3F8202140F2044500F0EAF82C492D488F
:101E2000D1F880202C4C42F003022C4BC1F88020CA
:101E3000C0F86051226813401BB9D0F8A8319A0746
:101E40001AD0244B4FF00041234A51631A46D3F86D
:101E5000401141F00201C3F84011D2F840319B0714
:101E6000FBD44FF400301E491B4B4FF0004208607A
:101E700019209A6300F0ACF81A4D0022164B4FF06F
:101E80008041144C0A26996328461A601146C4F80A
:101E9000A8614FF4207200F0AFF84FF4810640F2D1
:101EA00043114FF48000104B104A2E602864C4F890
:101EB0005851C4F84811C3F804220D4A4FF40031B8
:101EC00001231160C4F8403170BD00BF00800D4097
:101ED00000C00F4000002E4000900D40001C1E006E
:101EE0008CE200E000000020001400208976000051
:101EF0000CE100E008B50E4B1B6E9B0700D4FBBE47
:101F000072B60C4B00200C4AC3F8400103F1604349
:101F10000A49A3F55F2311649D46BFF34F8F084A1A
:101F200003F5E0430749126818461960936898471B
:101F300000441F4000002E4000C00A400300200063
:101F40001C002000000012EBB1F5607FF0B428BF48
:101F50004FF4607172B60025134B144F144E2C468B
:101F600003F170023860358043F8044F9342FBD18F
:101F7000B9B100230F4E01275D0903F01F0401339F
:101F800056F8252007FA04F48B4242EA040246F888
:101F90002520F1D100234380013300F582708B426C
:101FA000F9D162B6F0BC7047A41D0020A01D00202E
:101FB00040200020A81D0020F8B500BFF8BC08BCD8
:101FC0009E467047000000005FF800F0BD8C0000E6
:101FD0005FF800F0B96E00005FF800F0F1890000D2
:101FE0005FF800F0417000005FF800F0758D0000B0
:101FF0005FF800F0297E00005FF800F0B993000060
:102000005FF800F0F56B000045000000550100008E
:10201000B5040000CD0500007D090000C10B0000E3
:10202000D90B0000F10B0000090C0000210C00008E
:10203000390C0000510C0000690C0000810C0000FC
:10204000990C00005D100000751000008D1000005C
:10205000A5100000BD100000D5100000ED1000001C
:10206000051100001D110000351100004D11000088
:0C207000651100007D110000491D0000FA
:10207C0080C00F4000000003190000001000000099
:10208C00E8841F4001000000FF000000FF0000007A
:10209C00000000000000000018000000100000000C
:1020AC00E4841F4001000000FF000000FF0000005E
:1020BC0000000000000000001F00000070C00F4076
:1020CC00000C00001100000011000000E0841F4013
:1020DC00020000002C00000012000000E0841F40F1
:1020EC00010000001000000011000000DC841F4003
:1020FC00020000002D00000012000000DC841F40D4
:10210C00010000001E00000070C00F40C000000065
:10211C001200000013000000D0841F4001000000DA
:10212C00FF000000FF0000000000000000000000A5
:10213C001300000013000000CC841F4001000000BD
:10214C00FF000000FF000000000000000000000085
:10215C001C000000160355005300420020005300E1
:10216C0065007200690061006C00000018035400E7
:10217C00650065006E0073007900640075006900ED
:10218C006E006F000403090409024B00020100C039
:10219C0032080B00020202010009040000010202D5
:1021AC00010005240010010524010101042402068C
:1021BC000524060001070582031000100904010024
:1021CC00020A000000070503024000000705840214
:1021DC004000000009024B00020100C032080B0055
:1021EC0002020201000904000001020201000524A0
:1021FC000010010524010101042402060524060037
:10220C00010705820310000509040100020A000001
:10221C00000705030200020007058402000200000B
:0C222C000A060002EF0201400100010060
:102238000000000000000000000000000000000096
:102248000000000000000000000000000000000086
:1022580010B5054C237833B9044B13B10448AFF3D8
:1022680000800123237010BD4818002000000000E2
:10227800C4970000084B10B51BB108490848AFF3D4
:1022880000800848036803B910BD074B002BFBD03A
:10229800BDE81040184700BF000000004C1800209F
:1022A800C4970000C01600200000000010B50446C6
:1022B80008F0BAFB204610BD10B540F6B8312348E7
:1022C80000F054F94FF4E131204800F025F90121DC
:1022D8001E4800F003F960BB00211C48012200F0F1
:1022E800E3F90121194800F0F9F830B1062118483E
:1022F80008F008FA154800F00DF9164C0C2116489C
:1023080009F06AFB204600F0D5FB20465522202123
:1023180000F0C6FA38B1E2882046242142F00402CF
:1023280092B200F0BDFA1A210A48BDE8104000F048
:10233800F5BB1021094808F0E5F90A21034800F027
:10234800C1F8024800F0E6F8C6E700BF64180020AC
:10235800A808002018200020000020209408002051
:1023680038B5064D064C2B6822689B1A322B04D9C7
:102378000F2006F023FD2B68236038BD282000209D
:10238800342000202DE9F041404F0023404D414EBC
:102398003A686B722E602B612B72EB600AB971E0A0
:1023A8001A465369002BFBD155614FF000083A4C8F
:1023B8003A4B3748C5F81480A5F80480A5F806807C
:1023C80085F80A802B6000F0ABFC04F118004FF090
:1023D800020E266043464146024684F80880264697
:1023E800C4F80C8084F809E0206100E0326942F802
:1023F80023100133627A28489A42F7DC3A68234B63
:102408000AB941E01A465369002BFBD154610026F2
:10241800DFF8AC80224B20486661A680E680A67271
:10242800236000F0C3FE40461E4FC8F8044088F8F9
:102438000860C8F8005088F80960C8F80C6088F887
:10244800106008F0BDFA184A4046184908F098FD8F
:10245800012338467C603B727B72FE603D603E74AF
:1024680008F0AEFA104A3846104908F089FD104BBA
:1024780010480A221C681049104B046019601A722F
:10248800BDE8F0813D6090E71860C0E7A41D00201A
:102498006C1F0020B0020020841F0020BC02002016
:1024A800C8020020B81F0020B80D00207D000000E1
:1024B8002820002034200020FC02002018200020C2
:1024C800A41F002004480268114401E0994202D385
:1024D80003689A42FAD970472820002010B40C4AA1
:1024E800044671B941681368591A202909D8106837
:1024F80000F12103591A01E0994202D31368984266
:10250800FAD91368012063605DF8044B704700BF77
:1025180028200020704700BFF8B54FF47A7040F2C9
:10252800EE2606F0E1FD0D480D4A04680D4D0E4FEC
:1025380013783BB12B78DB0704D5036839685B1A3D
:102548000E2B0AD8036811781B1B19B1B3F5FA6F63
:10255800EED9F8BDB342EBD9F8BDF8BD282000206C
:102568006520002064200020DC2000200023436434
:10257800436041B104480268114401E0994202D322
:1025880003689A42FAD970472820002038B50F4CC2
:102598000D460621236843600D4808F0B3F80A2267
:1025A800002329460B4808F06DFB06210A4808F06D
:1025B800A9F8084808F056FB226802F1320101E048
:1025C800994202D323689A42FAD938BD28200020BC
:1025D800C8080020C40D0020D008002038B5037EAC
:1025E8000BB9632038BD0D46044608F025F810F0F5
:1025F800FF0F01D1652038BD08F01EF810F0FF0F5D
:10260800F8D008F059F8C0B2A0F158031E2BF3D83F
:1026180001A252F823F000BF71040000C9030000B2
:10262800C9030000C9030000C9030000C903000072
:10263800C9030000C9030000C9030000C903000062
:10264800C903000065040000C9030000C9030000B5
:10265800C9030000C9030000B3030000C903000058
:10266800C9030000C9030000C9030000C903000032
:10267800C9030000C9030000C9030000B303000038
:10268800C9030000C9030000C9030000C903000012
:10269800B503000020462946FFF778FF632038BDC0
:1026A80000236320237638BD70B505461646A9B1C8
:1026B80001230B4C037600212846FFF78FFF632880
:1026C8000CD02268511C23689A42F4D89942FAD255
:1026D80000212846FFF782FF6328F2D12E7670BDCD
:1026E80028200020034B00229A60DA601A615A61A0
:1026F800704700BF641800202DE9F04F00F5807E78
:10270800B1E8A00AB2E84015C5EA0643C6EA25447E
:10271800C7EA0845C8EA2746C9EA0A47CAEA29486B
:10272800CBEA0C49CCEA2B4AA0E8F8078645E7D162
:10273800BDE8F04F70474FF000022DE9F00F00F5AB
:10274800807C00BFB1E8A00AC5EA0203C2EA2544BA
:10275800C7EA0205C2EA2746C9EA0207C2EA2948C7
:10276800CBEA0209C2EA2B4AA0E8F8078445E9D176
:10277800BDE8F00F70474FF000022DE9F00F00F5AB
:10278800807C00BFB1E8A00AC2EA0543C2EA05049A
:10279800C2EA0745C2EA0706C2EA0947C2EA0908C7
:1027A800C2EA0B49C2EA0B0AA0E8F8078445E9D156
:1027B800BDE8F00F70472DE9F00F089C00F5007B8D
:1027C80051F8045B53F8046BC5EA0647C6EA254985
:1027D80052F8045B54F8046BC5EA0648C6EA254A71
:1027E800A0E880078345EBD1BDE8F00F704700BF34
:1027F80010B5044608F0C6F9204610BD024A034940
:10280800034808F0BDBB00BFB80D0020C10500009B
:10281800201F00200020704700207047F8B50125D0
:10282800027A1E4C0E46AA40C1F3072107462046ED
:1028380084F83D2084F8605084F85F5006F044F82E
:10284800F1B2204606F040F82046002106F01CF9B7
:1028580008B10020F8BD2B46397A0222204606F03E
:1028680083F90128F5D994F83A1094F83B50A94215
:1028780010D24A1C6318D2B2987E954284F83A2046
:102888004FEA002306D922440231907E84F83A1098
:102898001843F8BD4FF0FF30F8BD00BFD40D00203D
:1028A800F8B50125037A144C242903FA05F30E46DA
:1028B80008BFC2801746C1F30721204684F83D307F
:1028C80084F8605084F85F5005F0FEFFF1B22046AE
:1028D80005F0FAFFC7F30721204605F0F5FF20466B
:1028E800F9B205F0F1FF2946204606F0CDF8B0FA16
:1028F80080F04009F8BD00BFD40D00202DE9F0415B
:10290800044669480E46174609F06AF8052006F09D
:10291800EBFB20460621FFF781FF351C18BF012578
:10292800B02818BF002535B1002201232271637237
:102938002846BDE8F0814FF0010844F260023021DA
:10294800204684F80480FFF7ABFF05460028EFD047
:102958006C2226212046FFF7A3FF4FF4F9722821A5
:102968002046FFF79DFF40F622722C212046FFF7F4
:1029780097FF44F246423C212046FFF791FF40F280
:10298800371224212046FFF78BFF002E6BD0474BD0
:10299800342120469E428CBF42460022FFF780FF2A
:1029A80007EE907ADFED426A3221B8EE676A07EEE9
:1029B800906A2046F8EE677AB7FBF6F686EE277A35
:1029C80006F01F0207EE902AF8EEE77A77EE677AAC
:1029D80067EEA67AFCEEE77A17EE903AC3F30A039D
:1029E80043EAC222FFF75CFF44F2FF52302120463F
:1029F800FFF756FF732202212046FFF751FF4FF4DD
:102A0800C87006F071FB41F61D522E212046FFF7D3
:102A180047FF072204212046FFF742FFB022062184
:102A28002046FFF73DFF10220A212046FFF738FF16
:102A380000220E212046FFF733FF43F63C421021C7
:102A48002046FFF72DFF47F67F7222212046FFF729
:102A580027FF362224212046FFF722FF012328469C
:102A68006372BDE8F08144F2FF0230212046FFF78F
:102A780017FF732202212046FFF712FF4FF4C87098
:102A880006F032FB41F61D522E212046FFF708FFC3
:102A9800042220461146FFF703FF30220621204674
:102AA800FFF7FEFEBFE700BFD40D0020406603011C
:102AB80000000045014A0021FFF720BF0040C40A7A
:102AC80010B5044619B1012911D0002010BD5522B6
:102AD8002021FFF7E5FE0028F7D0E28820462421D0
:102AE80042F00402BDE8104092B2FFF7D9BE40F2AE
:102AF80073122A21FFF7D4FE0028E6D0882220216D
:102B08002046FFF7CDFE0028DFD0E28820462421AA
:102B180022F00402BDE81040FFF7C2BE38B50546F2
:102B280011B3802909D92B7900246BB9224628468C
:102B38002221BDE83840FFF7B3BEC1F180042B79EC
:102B480044EA0424002BF1D0EA88002324212846F3
:102B580022F010022B71FFF7A3FE224628462221FD
:102B6800BDE83840FFF79CBE012347F67F7222215B
:102B78000371FFF795FEEA882846242142F01002E7
:102B8800BDE8384092B2FFF78BBE00BF9FED057AD3
:102B9800DFED057AE0EE077AFCEEE77A17EE901A99
:102BA800FFF7BCBF00000143EE7CFF3E024A034929
:102BB800034808F0E5B900BFB80D0020C1050000C2
:102BC800B81E0020244B25491A68F0B412691879F8
:102BD800234BC8779A4209D2224A1278002A37D062
:102BE800214A402103F58074116002E01C46A3F5D8
:102BF80080731E491E4A0968166839B336B31D4FDB
:102C08003A88402A22D8500002F1400523F01F02DA
:102C1800014430443D8003F5807604310430BFF32D
:102C28004F8F154D2A6020329642FBD8BFF34F8F45
:102C3800BFF36F8F8A1E811E33F9040B22F8020F2F
:102C48009C4233F9020C21F8020FF5D8F0BC70470A
:102C580003F58074CDE700BF201E002000800E40E1
:102C6800400D20205620002008E200E0181E002019
:102C78001C1E0020422000205CEF00E0F8B506464C
:102C880007F0FAFD0446E8B107F0F6FD054600280E
:102C98003AD072B61F4B1A887F2A19D8002C31D027
:102CA8001D490A6842B162B6204607F039FE284637
:102CB800BDE8F84007F034BE18480C601A8005607B
:102CC80062B6F8BD054672B6124B1A887F2AE5D956
:102CD80011480022114907681A8004600C680D60C9
:102CE80062B63946304607F045FE384607F018FE0A
:102CF80030462146012207F03DFE2046BDE8F84057
:102D080007F00EBE62B6F8BD20462C4607F008FE56
:102D1800BFE700BF42200020181E00201C1E002014
:102D2800F8B5244C0121244E4FF48075204640F21A
:102D3800011707F0D7FE002000F0CAF902211F4A48
:102D480003201F4B4FF0060EC2F87C010022C3F887
:102D5800941123681B481E601B4E18619A80DD82FF
:102D68009960DD839982DF809E61DA602079A3F81B
:102D78001CE01649164B174F174E41F8202041F812
:102D88002070C6F8883007F08DFE23791349012298
:102D980003F01F05124F087003F11006AA405C11DA
:102DA800104D11481149FB7645F8260041F82420BA
:102DB800F8BD00BF201E0020A240384000801F4000
:102DC80000841F40400C202000FEFFFF00C00E4082
:102DD8000100009213000080004038405620002077
:102DE80000800E40001400209509000000E100E07A
:102DF800024A0349034808F0C3B800BFB80D0020D1
:102E0800C1050000201E0020024A0349034808F0BB
:102E1800B7B800BFB80D0020C1050000381E00205B
:102E2800024A0349034808F0ABB800BFB80D0020B8
:102E3800C1050000C01E0020024A0349034808F0EB
:102E48009FB800BFB80D0020C1050000C81E0020B3
:102E5800024A0349034808F093B800BFB80D0020A0
:102E6800C1050000E01E0020024A0349034808F09B
:102E780087B800BFB80D0020C1050000281E00203B
:102E8800024A0349034808F07BB800BFB80D002088
:102E9800C1050000401E0020024A0349034808F00B
:102EA8006FB800BFB80D0020C1050000D01E00207B
:102EB800024A0349034808F063B800BFB80D002070
:102EC800C1050000301E0020024A0349034808F0EB
:102ED80057B800BFB80D0020C1050000481E0020EB
:102EE800494B2DE9F04F1A6883B0484C197904F51D
:102EF80080751368464AAB42D17709D2454B1B7897
:102F0800002B4CD0444B40222C4605F580751A60A6
:102F1800424BDFF818B1D3F80080DFF814A1DFF8CE
:102F28001491DBF80030BAF80060B9F80070B8F115
:102F3800000F00D023BBB8F1000F34D008F1040112
:102F48002046019301EB46014036FFF7F4FB019B55
:102F580024F01F04BFF34F8F314A14602034AC4271
:102F6800FBD3BFF34F8FBFF36F8F7F2E34D8AAF8F0
:102F780000607F2F22D8A9F8007003B0BDE8F08F59
:102F88001A1D08F104012046019302EB470240375D
:102F980001EB46014036FFF7AFFB019BD8E72C4613
:102FA80005F58075B4E72BB3191D2046019301EB95
:102FB80047014037FFF7DFFB019BC9E700241846AC
:102FC800A9F8004007F0ACFC164B1A681C60CBF857
:102FD800002003B0BDE8F08F002440460193AAF812
:102FE800004007F09DFC104A0C4B116814601960F2
:102FF800019BBEE719464FF480722046019308F002
:10300800F3FA019BA4E700BF601E0020400E2020B9
:1030180000800E405720002008E200E0501E0020EB
:1030280070EF00E05C1E0020541E0020581E002097
:103038004420002046200020F8B50021044607F06F
:10304800B3FC80B172B61C4A1368002B29D01B4907
:103058000D6805B31A4E002715600860378062B600
:10306800184607F05DFC2046012107F09DFC88B159
:1030780072B6144A1368CBB113490C6874B1134D76
:103088000026146008602E8062B61846BDE8F84035
:1030980007F046BCF8BD086062B6E4E7086062B6AF
:1030A800F8BD074910600B8062B6DCE7074910607D
:1030B8000B8062B6F8BD00BF501E0020541E0020D1
:1030C80044200020581E00205C1E002046200020BE
:1030D800F8B52C4C2C4AE36F43F44023E36793681C
:1030E800002B46DBD2F88830002B42DB002342F26B
:1030F80010724FF40C6105461C2008F065FCE1696C
:10310800224A21F440612248224B41F40061E161E6
:10311800A16A0A4042F0CE02A2624268134043F418
:10312800002343602DB91C4B0322C3F82021C3F8A8
:103138002421194A0326144B0025C2F828610124CA
:103148004FF480301549164A164F174E1D66DC603D
:103158001F6158619961DA61C3F8E050C3F88C4087
:10316800C3F89060C3F89400C3F89810C3F89C2083
:10317800F8BD30B9084B0322C3F82021C3F8242135
:10318800F8BDF8BD00C00F400040384000FEFFFF0A
:1031980000C00A40F8FFF7FF00801F401B1F010016
:1031A800001F1F1F0100004701000007F8B5274D49
:1031B80000240121264E2846264F07F093FC264A74
:1031C800264B204614601C60FFF782FF244B032225
:1031D800022040F20111C3F880214FF480722B685D
:1031E8004FF0060E1E601F4EDA829880DA83D9806F
:1031F800DE6029791C4A1D4EA3F81CE098601F6107
:103208009C829C611A4842F821401A4B42F821607E
:103218002A791949C276D3F88820184F42F010420B
:10322800174C184EC3F88820996007F03BFC2B799F
:103238000122387003F01F0103F110055B118A4069
:10324800114944F8256041F82320F8BD601E00208C
:10325800400E202022403840501E0020581E0020DA
:1032680000801F4000FEFFFF00C00E4014000080D9
:1032780000800E4000403840010000905720002098
:1032880000140020B10C000000E100E0024A0349EC
:10329800034807F075BE00BFB80D0020C105000047
:1032A800601E0020024A0349034807F069BE00BFB8
:1032B800B80D0020C1050000A81E0020024A0349DD
:1032C800034807F05DBE00BFB80D0020C10500002F
:1032D800E81E0020024A0349034807F051BE00BF18
:1032E800B80D0020C1050000F01E0020024A034965
:1032F800034807F045BE00BFB80D0020C105000017
:10330800101F0020024A0349034807F039BE00BFD6
:10331800B80D0020C1050000681E0020024A0349BC
:10332800034807F02DBE00BFB80D0020C1050000FE
:10333800F81E0020024A0349034807F021BE00BFD7
:10334800B80D0020C1050000181F0020024A0349DB
:10335800034807F015BE00BFB80D0020C1050000E6
:10336800D81E0020024A0349034807F009BE00BFDF
:10337800B80D0020C1050000001F0020024A0349C3
:10338800034807F0FDBD00BFB80D0020C1050000CF
:10339800081F0020024A0349034807F0F1BD00BF97
:1033A800B80D0020C1050000701E0020024A034924
:1033B800034807F0E5BD00BFB80D0020C1050000B7
:1033C800B01E002000207047704700BF00207047E3
:1033D800002070470020704700207047036D0BB134
:1033E80001207047406D003018BF0120704700BFB2
:1033F80010B50446806D18B107F004FE0023A365DC
:10340800236D2BB104F11800BDE8104003F0A2BFF2
:10341800636D002BF6D110BDF0B5002395B04FF4C5
:103428007A74234F1A460546183104A88DF80430DB
:103438008DF80C30129313930294009703F0DEFF7B
:10344800129B53B35C20002607F0F2FB9DF8043072
:103458000446184A04A918302373029B226023618A
:10346800154A9DF80C30A2602375666003F030FFA2
:1034780063684FF47A71114A0133A760A6652E710B
:103488002E732C616360A9602A600D4B04A8009319
:1034980003F060FF284615B0F0BD139B002BD1D177
:1034A800064A2B71AC602B732B612A60EDE700BFD5
:1034B8004403002068030020C403002018030020F0
:1034C8008C020020036D13B1184602F021BD406D37
:1034D80008B100F0AFBF4FF0FF307047836C00B504
:1034E80083B063B1184601220DF1070102F042FCD6
:1034F80001280CD19DF8070003B05DF804FBC06CEF
:1035080028B101220DF1070100F0BAFEF0E74FF0F3
:10351800FF30F1E738B5846D0CB1204638BD05465B
:103528004FF4807007F066FD0146A86580B1286DEC
:103538000C7028B14FF4807203F0D4F8AC6DECE74E
:10354800686D40B14FF4807200F0B2FDAC6DE4E7F5
:10355800024CAC65E1E70C46DFE700BF5B200020CA
:10356800036D9BB11A7812F0700F00D1704710B537
:1035780004460021184602F021FE606D28B10022A1
:103588000023BDE8104000F06BBF10BD406D00285F
:10359800ECD090F8313013F0500FE7D00022002320
:1035A80000F05EBFD0B5046D8CB1012B08BF002AB6
:1035B80001D30020D0BD1146204602F0FFFD0028AF
:1035C800F7D0204602F00CFF0028F2D0D0BD446DA1
:1035D800002CEED0204600F043FF0028E9D020461A
:1035E800BDE8D04001F086BD036D13B1D869002154
:1035F8007047436D13B118695969704718461946E1
:10360800704700BF036D13B1586900217047436DBF
:1036180013B193E80300704718461946704700BF76
:10362800036D13B1184602F0A5BB406D08B100F058
:1036380027BE4FF0FF307047836C13B1184602F075
:1036480067BCC06C08B100F0F5BE4FF0FF307047A2
:10365800036D33B11B7813F0700F14BF01200020E5
:103668007047406D30B190F8313013F0500F14BFEF
:1036780001200020704700BF036963B11A68074939
:1036880092698A4208D1186D08B102F0A3BE586D3C
:1036980008B101F099BB704718461047851400001F
:1036A800836C13B1184602F095BEC06C08B101F0E6
:1036B8008BBB7047036D13B1184602F08BBE406D8B
:1036C80008B101F081BB704703698BB10E4810B493
:1036D8001C68E468844211D1186D18B15DF8044B78
:1036E80002F0BABE586D28B15DF8044B01F074BD04
:1036F8000020704700205DF8044B704718462346A9
:103708005DF8044B184700BF1D150000036973B12D
:103718001A68084952698A4207D1186D08B102F03F
:10372800F7BB586D18B100F085BE184610474FF02A
:10373800FF30704795120000836C13B1184602F0F1
:103748008BBEC06C08B101F047BD7047036D13B163
:10375800184602F081BE406D08B101F03DBD7047CA
:1037680000B5836C83B08DF8071043B11846012269
:103778000DF1070102F070FE03B05DF804FBC06CA8
:103788000028F9D001220DF1070101F025FD03B051
:103798005DF804FB10B5036982B08DF80710BBB162
:1037A8001968104ACC68944215D1186D30B10122BD
:1037B8000DF1070102F050FE02B010BD586D00284F
:1037C800FAD001220DF1070101F006FD02B010BD8B
:1037D800184602B010BD01220DF107011846A04796
:1037E80002B010BD1D150000036923B31968134A00
:1037F80010B58C6882B0944214D1186D48B101227A
:103808000DF1070102F0B6FA90B19DF8070002B079
:1038180010BD586D0028F8D001220DF1070100F005
:103828002FFDF1E7184601220DF10701A047EBE74C
:103838004FF0FF30EBE74FF0FF307047F113000017
:10384800826C62B1137803F0080303F0FF000BB336
:10385800D3695069181A48BF6FF000407047C16CAF
:10386800C9B191F8313003F0080303F0FF008BB1C0
:10387800D1E90423D1E9000130B4101A4FF0000552
:103888006FF0004463EB01018D4208BF844200D20F
:10389800204630BC70470846704700BF026D62B1D1
:1038A800137803F0080303F0FF000BB3D3695069E2
:1038B800181A48BF6FF000407047416DC9B191F8C0
:1038C800313003F0080303F0FF008BB1D1E9042382
:1038D800D1E9000130B4101A4FF000056FF0004430
:1038E80063EB01018D4208BF844200D2204630BC00
:1038F80070470846704700BF006900282FD003684A
:10390800184A1B6993420ED1026D6AB1137803F00D
:10391800080303F0FF0013B3D3695069181A48BFAE
:103928006FF0004070471847416DC9B191F83130C8
:1039380003F0080303F0FF008BB1D1E90423D1E9B8
:10394800000130B4101A4FF000056FF0004463EB2B
:1039580001018D4208BF844200D2204630BC704726
:10396800084670476D160000D0B4039C16461F46E3
:1039780034B1012C1ED0022C0DD00020D0BC7047D1
:10398800046DDCB1012B08BF002AF6D2204611468F
:10399800D0BC02F013BC036DB3B1DA69B61847F1B5
:1039A8000007012F08BF002EE7D231461846D0BCC9
:1039B80002F004BC036D93B15A69EFE7406D00282B
:1039C800DBD0D0BC00F04CBD436D002BD5D01846E1
:1039D800D3E9042392197B41D0BC00F041BD436D6B
:1039E800002BCAD01846D3E9002392197B41E8E797
:1039F80038B504460C4B806D236018B107F002FB04
:103A08000023A365236D04F118054BB1284603F084
:103A1800A1FC064B2846A36003F09CFC204638BD59
:103A2800636D002BF2D1F4E7680300208C020020BC
:103A380038B504460E4B806D236018B107F0E2FAE2
:103A48000023A365236D04F118056BB1284603F024
:103A580081FC084B2846A36003F07CFC20465C21CF
:103A680007F0E8F8204638BD636D002BEED1F0E78B
:103A7800680300208C02002070B5254B05460469B8
:103A880003601CB16668013E66600EB1284670BDD1
:103A98002368204ADB6A93422CD1A06D10B107F04D
:103AA800B1FAA665236D5BB304F1180003F052FC6C
:103AB8002C69002CEAD02368174A5B6893421CD112
:103AC800164BA06D236018B107F09CFA0023A3657C
:103AD800236D04F11806BBB1304603F03BFC104BD4
:103AE8003046A36003F036FC20465C2107F0A2F8BC
:103AF800284670BD20469847DAE720469847C5E72C
:103B0800636D002BD0D1D3E7636D002BE4D1E6E7DA
:103B180018030020C11100000118000068030020EC
:103B28008C02002070B5294B0446056903601DB15D
:103B38006E68013E6E602EB12046142107F07AF8B7
:103B4800204670BD2B68224ADB6A934230D1A86DAB
:103B580010B107F057FAAE652B6D7BB305F118006D
:103B680003F0F8FB2569002DE6D02B68194A5B683D
:103B7800934220D1184BA86D2B6018B107F042FA78
:103B88000023AB652B6D05F11806DBB1304603F059
:103B9800E1FB124B3046AB6003F0DCFB28465C21AE
:103BA80007F048F82046142107F044F8204670BD75
:103BB80028469847D6E728469847BDE76B6D002BFF
:103BC800CCD1CFE76B6D002BE0D1E2E718030020E2
:103BD800C111000001180000680300208C020020B9
:103BE80070B440F20125046825611BB31E46F1B18B
:103BF8000D780131013B6566256FAD0706D4656F09
:103C0800013EEDB212B11570013204686569ED0725
:103C1800F2D5002BEBD16EB101680B6F9B07FCD47A
:103C28004B6FDBB20AB113700132013EF3E790F833
:103C38003C50DFE770BC70470BB1FFF7D1BF70474E
:103C48004FF0FF30704700BF0020704701207047D9
:103C5800704700BF012BF0B5054695B03BD0022B4D
:103C680001F1040140F20223684618BF002303F063
:103C7800F7FB129B002B37D05C2004AF06F0D8FF6F
:103C88009DF8042004461F4B0026DFF888E02273C5
:103C98003946029A1830A3609DF80C3022612375CA
:103CA800C4F800E0666003F013FB63684FF47A71B0
:103CB80015480133154AA6652E712E732C61A06034
:103CC8006360A9602A60124B3846009303F042FBF8
:103CD800284615B0F0BD44F202230431684603F0CB
:103CE800BFFB129B002BC7D1139B002BC4D14FF4F1
:103CF8007A71064A2B7104AF2B732B61A9602A6075
:103D0800E1E700BFC403002044030020180300209B
:103D18008C0200206803002030B5D0F884448FB0AE
:103D2800A4B100250A466846214601238DF80050B3
:103D38008DF801508DF8025002F00EF808B90FB056
:103D480030BD684602F08AFE0FB030BDD0F8880456
:103D58000028F4D00A460123014668468DF8314010
:103D68008DF832408DF8334000F070FE0028E6D020
:103D7800684600F0DBFE0FB030BD00BF30B5D0F8AC
:103D880084448FB07CB100250A46012304F589617B
:103D980068468DF800508DF801508DF8025001F0FA
:103DA80013FF0FB030BDD0F888040028F9D00A46B8
:103DB800012300F5896168468DF831408DF832405D
:103DC8008DF8334001F0D0F80FB030BD30B5D0F8E1
:103DD80084448FB074B100250A46684621462B46B4
:103DE8008DF800508DF801508DF8025001F0B4FFA5
:103DF8000FB030BDD0F888040028F9D00A46234611
:103E0800014668468DF831408DF832408DF83340D0
:103E180000F01CFE0FB030BD38B50546D0F884045C
:103E2800C0B1C469013C03F0F5F9D5F88434241A0B
:103E380043B198794FF4007303FA00F080B2A0FB05
:103E4800040138BDD5F8883463B1D3F83C04A0FB2D
:103E5800040138BDD5F8880420B1D0F8304401F009
:103E680087FCE2E70020002138BD00BF30B5D0F85C
:103E780084448FB0A4B100250A46684621462B46E3
:103E88008DF800508DF801508DF8025001F064FF54
:103E980008B90FB030BD684602F062F90FB030BD06
:103EA800D0F888040028F4D00A462346014668461C
:103EB8008DF831408DF832408DF8334000F0C6FD62
:103EC8000028E6D0684600F09DFE0FB030BD00BF68
:103ED80070B5D0F884448EB01646C4B1002504F5F8
:103EE80089640A46684621462B468DF800508DF8AD
:103EF80001508DF8025001F0CBFE08B90EB070BD2C
:103F080032462146684602F039F80EB070BDD0F846
:103F180088040028F2D000F589650A4623466846D9
:103F280029468DF831408DF832408DF8334000F045
:103F38000BFD0028E2D032462946684601F082F897
:103F48000EB070BDD0F884244AB191794FF4007353
:103F5800D0698B4001389BB2A3FB00017047D0F8B1
:103F6800882432B1D2F83034D2F83C04A3FB0001E3
:103F78007047002000217047134B14491448154A14
:103F8800F0B40024072701262925C3F89414124900
:103F980018601846C3F8A024C3F8A814C3F8AC7472
:103FA80083F8B56483F8B754C3F88444C3F88844E5
:103FB80083F89C4483F89D4483F8BA44074A084927
:103FC800F0BC06F0DDBF00BFAC1800203C040020A8
:103FD800E80300209404002000093D00B80D0020EB
:103FE800211A000070B50446406804F11006036801
:103FF800E1683246DB69984740B1237805469A075D
:1040080007D423F001032846237070BD00252846F5
:1040180070BD60683246A168E66803683144DB69B0
:1040280098470028F2D02378EBE700BFF8B543683B
:10403800FBB1C368044615460F468B420ED0037881
:10404800DA0712D46B0716D504F11006002205F022
:1040580003053046E76015432570F8BD10F9102BAD
:1040680005F0030515432570F8BDFFF7BBFF0028D1
:10407800E8D10020F8BD606804F1100639460368ED
:104088003246DB6898470028E0D1F2E70378DB077F
:1040980001D401207047FFF7A5BF00BF10B5044643
:1040A80000F092FE002384F8313084F8333010BDDC
:1040B8002DE9F04300F1240385B081468846154672
:1040C80001AE90F8314093E8070086E80700ACB3EA
:1040D80099F83030012B38D901270024012F3146B7
:1040E800D9F8200014BF2022402201F0C5FA012887
:1040F80024D100223146D9F8200001F0A1FAE8B114
:104108000378C12B1AD108EB040E04F10F0C30F818
:10411800022F631C3F21CAB1AB4217D27E2A1C462C
:1041280098BFD1B263450EF8011BF0D1013799F859
:104138003020FFB2BA4209D91C46CFE700231846FF
:1041480088F8003005B0BDE8F0830024002320463D
:1041580008F8043005B0BDE8F08300BF90F83120BE
:104168000AB10020704738B50D461146382204467A
:1041780007F03AFA40230120256284F8313084F8A8
:10418800330038BD2DE9F0410878202803D111F813
:10419800010F2028FBD0516008782F2864D0002810
:1041A80062D05C2825D0A0F12204E4B21A2C23D9CD
:1041B8004D1C0026DFF8C4E003E01A2C2EFA04F7A1
:1041C80022D9A0F13E040136A0F1200CA846012C0A
:1041D80037460ED97C280CD0BCF15E0F09D815F8EB
:1041E800010BA0F12204A0B12F28E4B211D05C2861
:1041F800E3D10020BDE8F081204D25FA04F4E5075D
:10420800D6D50020BDE8F081FC07DAD50020BDE84E
:10421800F0812F2801D0202823D1701C084405469E
:1042280010F8014B202CFAD02F2CF8D01D609EB12D
:104238000F4417F8013C202B01D02E2B0AD1731EF6
:1042480019441E464BB111F8010D013B2E28F8D038
:104258002028F6D0FF2ECCDC334613600120BDE8C1
:10426800F081C3F80080E3E7202801D02F2802D18D
:1042780000273E46D1E719600023EEE7010100055B
:104288002DE9F04F90F8333083B00546DE0760D54E
:104298005C060E46914640F1BE80D5E90001D5E99D
:1042A800042310EB090A41F1000B5B4508BF524596
:1042B800C0F0B780B9F1000F74D0AA464C4640F25E
:1042C800FF17FAE806012B6AD3F8382402EA000837
:1042D800C8F3080BB8F1000F6AD150EA010279D18E
:1042E80095F8312051064CBFD3F83414E969A96117
:1042F8004FEA58200239D3F82C24BC4293F845E4FD
:10430800024401FA0EF111442ED9BBF1000F2BD152
:10431800D3F81C22914227D0B4F5806F61D34FF0B7
:10432800010C4FEA54280CFA0EFEC0EB0E00804533
:1043380028BF804691423DD801EB0800824239D21D
:1043480003F5047001910093FFF7A0FE009B01990B
:1043580080BB95F832304FF0FF3043F0020385F808
:10436800323003B0BDE8F08F03F504700022FFF788
:104378005DFE0028EDD0CBF5007800EB0B01304650
:10438800A04528BFA046424604F07EFC40460021D6
:104398004644D5E9002380185941B4EB0804C5E91F
:1043A800000190D10024C4EB090003B0BDE8F08FF0
:1043B800A9699DE7D3F8140232464346D0F800E0D5
:1043C800DEF810B0D8470028C3D04FEA48280021AB
:1043D8004046DDE795F83320520610D5A96901312A
:1043E80085E7D3F8140232460368DB68984700284B
:1043F800AFD04FF4007000214FF40078C8E718469A
:104408005246A96901F064F940B20028A1DB0BD03B
:104418002B6AA9696CE790F8313018073FF53DAF72
:1044280048E7C0EB020945E795F8313013F0500F23
:10443800B9D18EE7F0B583B00122044685690DF144
:104448000701D0E90067FFF71BFF0128A5610CBF32
:104458009DF807004FF0FF30C4E9006703B0F0BDD6
:104468002DE9F04F90F831E085B004468569BEF13A
:10447800000F36D016461F46D0E90001994208BF02
:10448800904265D056EA070330D10023A36101208A
:10449800C4E9006705B0BDE8F08F10F1FF3241F1C3
:1044A800FF3322FA0CFC03FA08F823FA0AFA50EA56
:1044B80001034CEA080C4CEA0A0C4BD0E34549D3FB
:1044C800CCEB0B0BA94604F118085D464246002DBB
:1044D800DDD0A169013D206A01F0FAF80028F5D184
:1044E8004D460020A56105B0BDE8F08F1EF0080F0D
:1044F80027D1236A16F1FF3893F845C447F1FF39ED
:10450800C24603930CF1090CCB4694F833905FFA3A
:104518008CFC19F0400FCCF120082AFA0CF2CDE9F6
:1045280000AB019BACF1200A03FA08FB23FA0AF35B
:1045380042EA0B0242EA030BAFD0E3695B44A36192
:10454800A5E7D4E90423BB4208BFB242C9D3D0E7E8
:104558000120C8E71EF0400F02D1E369A361B1E76B
:10456800039BD3F83434F9E72DE9F04F9A4693B01A
:1045780090F83130054600922BB991F831300E464B
:1045880013F0500F08D10023184685F8313085F80C
:10459800333013B0BDE8F08F1C9B03F00303012BED
:1045A80006D0022B00F00981002BECD1012300E09A
:1045B80002231C9A02F0080213430193009B002B6C
:1045C80000F0FD8018460022514601F043F996F8A4
:1045D800313002904BB1D6E90023134305D00021B6
:1045E80000220023B161C6E900230AF10E03B8498D
:1045F8004FF0000981FB0321DA174C464F460B4464
:10460800C2EBE303DBB2039302335FFA83FB20229E
:104618000AA93046FFF734FE00283DD02028B2D141
:104628009DF828301A0666D4002C61D13268B16929
:10463800203A079108920134E4B26BB3C02B00F022
:104648009380C12B62D0852BE1D1382200212846E6
:1046580006F0CAFF9DF82C309DF82920D806304670
:1046680085F8302003F0370258BF42F0080285F879
:1046780031203368316AB269203B29620AA96A622B
:104688002022AB6296F83330C3F3801385F82C30C0
:10469800FFF7F6FD0028C1D11C9B99057FF573AF84
:1046A800019B9A077FF56FAF009B002B3FF46BAF20
:1046B8005C450CD386E020287FF465AF24B93268C6
:1046C800B169203A07910892DCB2A3457AD9202231
:1046D8000AA93046FFF7D4FD631C0028EBD1304609
:1046E800B76900F0A1FB00283FF44DAFB761ECE7D4
:1046F8005C45A2D29FE7B9F1000F9FD15C4538BF56
:104708000024852B83D14FF001099EE7C7EB0A08E7
:104718003A4600990AA85FFA88F8B8F10F0F28BF3F
:104728004FF00F08434601F067F800283CD0474493
:10473800FFB2BA457FF46BAF1C9B1B053FF523AF57
:104748001C9B13F4884F40F0A08095F833309F07E6
:1047580000F19B801C9B5B053FF515AF1C9B580423
:1047680000F1B880012014E79DF82930019A9907D3
:1047780085F8332003D542F0400385F833300F998C
:10478800DDE90C23E961C5E90423DDE91001009B9B
:10479800C5E90201002BCFD09DF82B30534505D039
:1047A8004FF000094F4632E7814630E7BDF82C301C
:1047B800029A9342F4D1002729E70323F9E6009BE4
:1047C800029312E796F83330002138222846C3F3C3
:1047D80080130F460DF11C0805F124048DF82430D0
:1047E80006F002FF039A336A0AF11E0602F1010974
:1047F80008222B62F6B285F831205FFA89F9CDF8E4
:104808000CA0DDF800A098E8070084E80700184627
:104818000122414600F014FF044600283FF4B3AEDD
:1048280090F90030002BFFF6AEAE2022002106F0F2
:10483800DBFE002F67D0012F55D0C7EB07130F2ED3
:104848004FF0C1013246A3F11E0328BF0F22217089
:10485800DBB252B1023412B2534404EB420213F8F1
:10486800011B24F8021BA242F9D10137FFB2BB4554
:1048780029D920224146286A00F0FEFE01287FF44B
:1048880082AE0F3E286AF6B2C2E795F8313013F0CF
:10489800110F7FF478AE1C9B5E057FF55FAF95F82E
:1048A80033309C077FF56FAE002200232846FFF7C0
:1048B800D7FD00283FF467AE284600F01BFC00280F
:1048C8003FF461AE4EE7284600F07EFA61E600BF8D
:1048D800898888882846D5E90423FFF7C1FD002880
:1048E8007FF440AF4FE6019BC021032263F03F03F2
:1048F8002170627085F833309DF80C30E370BDF894
:104908000830A380B1E7852323700E4B85F83090DB
:1049180084F801901B687BB10DF117020DF11A01A3
:1049280006A89847BDF81810BDF81A209DF817304A
:1049380061812281237598E745F221436381E381F0
:10494800638292E79C1D00202DE9F043064695B04E
:1049580000200D4696F8311003928DF849008DF825
:104968004A008DF84B0029B9994695F8313013F073
:10497800500F03D1002015B0BDE8F083137814461A
:104988002F2B35D04FF00008214603AB04AA304640
:10499800FFF7F8FB0028EDD0039B1B78002B3CD0D9
:1049A8009DF810302946059A3046CDF80080FFF76B
:1049B800DBFD0028DED0344606AF06F1300E206855
:1049C800103454F80C1C3D4654F8082C103754F891
:1049D800043C74450FC5F2D1206806AD38603046F6
:1049E80000F0F2F986F8318086F83380039CCBE733
:1049F8000134039421782F29FAD0D1B106A838229E
:104A080000212F6A054606F0EFFD402201230E978C
:104A18008DF849208DF84B30B4E79DF810302946C1
:104A2800059A3046CDF80090FFF79EFD15B0BDE819
:104A3800F083382230462C6A06F0D6FD4023012048
:104A4800346286F8313086F8330094E719B101F5FD
:104A58008961FFF779BF0846704700BF90F8313089
:104A680053B930B591F8314083B00D4614F0500475
:104A780004D1204603B030BD00207047D5E9004579
:104A8800002504F01F042C4302D0184603B030BDA3
:104A980000921A46FFF768FD03B030BD8169F8B58A
:104AA8000446006A01B10131012200F0FDFC012831
:104AB80006462ED901230146206A1A4600F04EFD0B
:104AC800074630B3A3693BB394F83320510612D597
:104AD800591C8E4226D022F04002E16984F8332026
:104AE80005E0206A00F0FEFD294690B1A3694D1C3F
:104AF80099422A46F5D34FF0FF323146206A00F03A
:104B0800F1FD30B1A16969B13246206A00F0EAFDD1
:104B180040B900273846F8BD94F8333043F04003D5
:104B280084F83330A6613846F8BD00BF2DE9F0435C
:104B380000F1240385B090F83340054601AE93E8B0
:104B4800070086E80700A2071BD5E969E9B9002430
:104B580001223146286A013400F072FD88B10378D9
:104B6800E4B203F07F03037095F83030A34231D3E9
:104B7800002CEDD020223146286A00F07DFD012866
:104B8800E6D0002005B0BDE8F0836306286A1CD58E
:104B980090F845240023D5E90289093218F1FF3835
:104BA800D2B249F1FF39C2F12007A2F1200428FA54
:104BB80002F209FA07F729FA04F43A4322430132C8
:104BC80000F0CCFC0028C2D1DBE700F09DFD0028F6
:104BD800BDD1D6E700232C6A85F83130204685F808
:104BE8003330FFF753FA0028CBD004F50470FFF7F1
:104BF8004DFA0028C5D0D4F8400403689B6998474B
:104C0800C0E700BF90F83130D90601D400207047C2
:104C180010B5002288B000230446FFF721FC06E007
:104C2800202819D19DF800301A0615D433B1202256
:104C380069462046FFF724FB0028F1D194F8333069
:104C48000822204643F0020384F8312084F83330E8
:104C5800FFF76CFF08B010BD002008B010BD00BF02
:104C68002DE9F04F002787B000F1240B06460DF11F
:104C78000C08BA463C469BE8070088E80700002273
:104C88004146306A5FFA87F900F0DAFC054630B130
:104C98000378C02B59D0C12B2ED0852B09D096F87C
:104CA8003230002043F0010386F8323007B0BDE807
:104CB800F08F96F83120434B02F0370290F801A0AC
:104CC8001B68828083B10DF107020DF10A0102A869
:104CD8009847BDF80A20BDF808309DF80710AA814A
:104CE80069752A82EB816B82326A92F8103243F03E
:104CF800010382F810322B78E103A3F1850000222A
:104D080041EA5404B0FA80F0012113FA84F340090F
:104D18009CB20A44E30303211F2A43EA540309D837
:104D2800AC5C012A14FA83F39CB201D10028F0D1BB
:104D38000121EEE7CA4526D020224146306A0137D4
:104D480000F09AFC01289AD0A9E796F8333013F0BE
:104D5800400F437814BF43F0020323F0020343706B
:104D6800306AF169D6E904236961C5E90223D6E905
:104D78000223C5E9062390F8103243F0010380F8B6
:104D880010322B78B8E759460122306A00F058FCF7
:104D9800002884D0356A44802846FFF777F9002830
:104DA8003FF47DAF05F50470FFF770F900283FF474
:104DB80076AFD5F8400403689B69984700283FF40C
:104DC8006EAF73E79C1D002090F8312092B138B582
:104DD80090F8332011060FD4056A04462846FFF7D9
:104DE80055F988B994F83230002043F0010384F86B
:104DF800323038BD0120704702F07F0280F833203E
:104E0800BDE83840FFF72CBF05F50470FFF73EF901
:104E18000028E7D0D5F8400403689B699847002824
:104E2800E0D0012038BD00BF2DE9F04190F83130C5
:104E3800044659065FD48068236AD3F83C34184482
:104E4800B0F1806F02D30020BDE8F0812046FFF763
:104E580025FE0028F7D0266A96F81032DA074ED4D5
:104E68004FF0FF33002506F508784FF40072C6F8B6
:104E78001C32294686F81052404606F0B5FB226AD5
:104E8800A769012692F84514023FD2F82C348F40C6
:104E98001F4416FA01F310D0D2F84004791942469B
:104EA80001350368DB6998470028CCD0226A92F85C
:104EB800453406FA03F3AB42EED894F831305B067A
:104EC80014D494F83330002763F07F0384F8333028
:104ED800D2F83C64D4E90223D4E9040192197B4155
:104EE80080197941C4E90223C4E904012046BDE8D8
:104EF800F041FFF769BF006A00F072FC9CE706F515
:104F08000470FFF7C3F80028AAD19CE791F8313064
:104F180013F0500F01D10020704730B540F602253C
:104F280083B01378044652680095FFF71DFB10B94B
:104F3800002003B030BD1023204684F83130FFF73D
:104F480073FF0028F4D0A169002200232046E16104
:104F5800FFF786FAC123204684F8333003B0BDE852
:104F68003040FFF731BF00BF2DE9F043064695B04A
:104F780000200C4696F8311003928DF849008DF800
:104F88004A008DF84B0029B9994694F8313013F04E
:104F9800500F03D1002015B0BDE8F08313781146F7
:104FA8002F2B39D04FF0000803AB04AA3046FFF787
:104FB800E9F80028EED0039B1B78002B3AD09DF827
:104FC80010302146059A3046CDF80080FFF7CCFA1C
:104FD80048B9B9F1000FDDD0214604AA3046FFF7E1
:104FE80095FF0028D6D0344606AF06F1300E20686B
:104FF800103454F80C1C3D4654F8082C103754F85B
:10500800043C74450FC5F2D1206806AC38603046C0
:10501800FFF744F80399C7E7013103910B782F2B69
:10502800FAD0216A06A8FFF799F80028B2D006AC92
:105038000399B7E704AA21463046FFF767FF15B082
:10504800BDE8F083F0B590F831409DB0002314F02E
:10505800180F8DF831308DF832308DF833308DF8E7
:1050680069308DF86A308DF86B3003D00B6A046AAA
:105078009C4202D000201DB0F0BD044640F601233A
:105088006846FFF761FC0028F4D0254604F1300E8D
:105098000EAF2868103555F80C1C3E4655F8082CFC
:1050A800103755F8043C75450FC6F2D1286809AA8F
:1050B80004F1240338609DF8305007CA83E80700DC
:1050C80094F83330204684F8305063F07F0384F836
:1050D8003330FFF779FE0028CCD0002102220823C4
:1050E8000EA815918DF86B208DF86930FFF71EFD1D
:1050F800C1E700BF90F833309A0718D5F0B5C569F5
:1051080083B08DB103F04003044603F0FF0683B972
:105118008169002942D10195C1612946206A00F0C0
:10512800F3FA38BB002000E0012003B0F0BD0020F6
:105138007047006AA16990F84524D4E902670932EA
:1051480016F1FF36D2B247F1FF37C2F1200EA2F1B5
:10515800200326FA02F207FA0EFE27FA03F342EAC0
:105168000E021A430132B1B1013D4B1C691A019379
:105178000A440ABB94F833302046D4E9006763F048
:105188007F03C4E9026784F83330C4E90467FFF792
:105198001BFE03B0F0BD0195E161EAE702AA006ACF
:1051A80042F8046D00F094FA40B20028BADB0AD144
:1051B800019D002DDED0B0E70023019900F0CEF963
:1051C8000028D7D1AEE74FF0FF32A169206A00F07E
:1051D80089FA0028ECD1A5E72DE9F04F90F8333093
:1051E80083B004469D0700920AD494F832304FF0F9
:1051F800FF3043F0010384F8323003B0BDE8F08F8C
:105208001A07884600F10781009B002B00F01781E0
:105218002146009D4FF0010AF1E8062393460191CB
:10522800206AA169D0F8386406EA0B06C6F30809B3
:1052380056BB002900F0BD8094F833305B0640F17E
:10524800D28090F84524E3690932D4E902BCD2B28D
:105258001BF1FF3BC2F1200EA2F120074CF1FF3CED
:105268002BFA02F20CFA0EFE2CFA07F742EA0E02AB
:105278003A431A449142C0F0B3802046FFF70EFC2F
:105288000028B2D0206AA169760A0239D0F82C74B5
:1052980090F845E4374401FA0EF13944B9F1000FAA
:1052A8005BD1B5F5007F2CBF00220122002A54D122
:1052B800B5F5806FC0F081800AFA0EFE6B0AD0F84F
:1052C8001CC2C6EB0E06B34228BF334661454FEAFF
:1052D800432708D85E18B44505D24FF0FF3680F84A
:1052E8001022C0F81C62D0F8140242460668366ADA
:1052F800B04700283FF479AF38460021B844ED1B89
:10530800D4E90023D4E9046712EB000B43EB010C4A
:10531800674508BF5E45C4E900BC07D294F833105E
:1053280061F07F01C4E904BC84F83310002D7FF4D8
:1053380077AF5A466346D4E90201994208BF9042C2
:1053480071D3404B1B68002B77D094F8333000980A
:1053580063F07F0384F833304FE7B9F1000F26D1AB
:10536800D4E90423D4E900679F4208BF964234BFBA
:105378000122052200F50470FEF758FE00283FF4CC
:1053880034AFC9F5007748444146AF4228BF2F469D
:10539800B9443A4603F078FCB9F5007FACD1206AED
:1053A80000F50470FEF772FE0028A5D11DE7012262
:1053B800E0E7E169F1B1A16166E7D0F81C329942F2
:1053C80022D0D0F8140242460368DB6998470028C7
:1053D8003FF40BAF4FF4007000214FF400778DE7D6
:1053E8000131A16150E7019A00F072F900287FF4B9
:1053F80049AF42E72046FFF751FB00283FF4F5AEDE
:10540800A169206AE1613FE74FF0FF3380F810227D
:10541800C0F81C32D5E7D0E90423FFF721F80028AB
:105428003FF4E3AEF0E694F83310009861F07F01A2
:10543800C4E9022384F83310DFE60098DDE6D4E9F6
:10544800002378E79C1D002038B50C46D0F82414BA
:10545800154600F50470002201EBD411FEF7E6FDB5
:1054680040B1A400C4F3080403595A1C04D02B60AB
:10547800012038BDFF2038BD002038BD38B50C46A6
:10548800D0F82414154600F50470012201EBD4115C
:10549800FEF7CCFD034628B1A4000120C4F308049C
:1054A8001D5138BD38BD00BF2DE9F84F80469146E3
:1054B8008B46002943D08F1ED8F830349F423AD209
:1054C80007F007050123C7F3C80A03FA05F5EDB28B
:1054D8003E463C46D8F82C140022404601EB1431D5
:1054E800FEF7A4FDC0B110F80A100AE04A4529D019
:1054F800A74210D0D8F83024944216D213F0FF05F2
:105508000CD001340D424FEA4503A4EB0602EDD05E
:10551800A7422646EED10120BDE8F88F0AF1010A1C
:105528000125BAF5007FDED101E0002634464FF0B0
:10553800000A0125CEE700270125BA46C8E7D0F8BA
:105548002074B9E7BBF1000F04D1B9F1010F08BF0E
:10555800C8F82064B01CBDE8F88F00BF2DE9F047FB
:10556800023915469A46D0F830244B19934238D858
:105578008046BAF1000F37D1D0F82034994238BFAD
:10558800C0F8201401F007040122D8F82C34C1F324
:10559800C80602FA04F403EB1139E4B201224946C1
:1055A80040469144FEF742FDD8B1871900F50070D6
:1055B80017F8012B224282EA04024FEA440414BF7E
:1055C8000126002656450CD0013D07F8012C17D0BE
:1055D80014F0FF04EED1874226464FF00104E7D1CC
:1055E800DCE70020BDE8F087D0F820048342C9D961
:1055F8008142C7D8934228BF0023C8F82034C1E7A6
:105608000120BDE8F08700BF70B582B005460024D0
:1056180002AE46F8041DD5F8303401990133994299
:1056280002D9002002B070BD32462846FFF70CFFB1
:10563800013440B20028F4DBEDD1204602B070BD41
:1056480070B50E460446D0F8385400F50470496821
:1056580033682940D4F82C54023B94F8454405EBB0
:105668005121A3401944FEF7E1FC18B17368C3F354
:105678000803184470BD00BF70B54C680D46D0F8DB
:1056880038340646A1181C40696090F84534224415
:105698000933DBB222FA03F43CB12B7A3BB12B6815
:1056A80001332B60013C002CF7D1012070BDD6F8E6
:1056B800303429680133994202D94FF0FF3070BD68
:1056C8002A463046FFF7C0FE40B20128EAD070BD36
:1056D800D0F8303401338B4201D2FF207047FFF7F6
:1056E800B3BE00BF01290DD9D0F830340133994237
:1056F80010B403D900205DF8044B70475DF8044BE3
:10570800FFF7BCBE00207047F0B50C4683B00546D5
:105718000F46D5F8303401339C4202D9002003B03B
:10572800F0BD214601AA2846FFF78EFE012C46B29D
:1057380021462846F2D9F20FF0D1D5F8303401339A
:105748009C42EBD8FFF79AFE394600230028E5D0A3
:10575800621C2846019C0EB1A242DAD0D21BFFF788
:10576800FDFE0028DAD0019C002ED8D02746D0E7CD
:105778002DE9F84300248046D0F82C6400F504771E
:1057880025463146002238460136FEF74FFC28B33D
:1057980000F1FF3ED8F830C405F580591EF8010F16
:1057A800FF2813D048B10822012318424FEA4301C9
:1057B80018BF0134013ACBB2F7D10835AC4509D945
:1057C8004D45DED01EF8010FFF28EBD1083508340F
:1057D800AC45F5D8C4EB0C00BDE8F883BDE8F88308
:1057E80010B50446D0F83414FFF70EFF94F845348A
:1057F8000933DBB2984010BD4BB370B444887E2C9B
:105808001FD8134402300A44194412F8013BE4B289
:10581800A3F16106A4F16105192E94BF2026002684
:10582800192DA3EB060394BF20250025DBB2641BCA
:10583800E4B29C4205D18A4206D030F8024F7E2C51
:10584800E3D9002070BC7047012070BC704701206C
:10585800704700BFD1B1014430B410F8014BD303F5
:1058680043EA5202A4F16103A4F12005192B98BF61
:10587800ECB2814214FA82F292B24FEAC23343EA9E
:10588800520292B2E9D1104630BC704710467047B8
:1058980038B50D4604462422002105F0A5FEA56072
:1058A800EB79102B08D0202B04D140230120237042
:1058B800A07038BD002038BD202301202370A070BF
:1058C80038BD00BF024638B552F8105F04468068FC
:1058D800294601F035FC50B155B123690135AB4279
:1058E800A37818BF03F0BF0363F07F03A37038BD2C
:1058F800A37843F04003F7E72DE9F041037803F07C
:1059080020032BB903F0FF044169204B994203D9C6
:1059180000263046BDE8F0810546FFF7D3FF06466E
:105928000028F5D0A96805222B698F7901F1280094
:10593800023B4969BB405F183946FEF777FB804652
:105948000028E5D04FF40072214605F04DFEAB6803
:105958001A79012A10D9012404E0AB68E4B21A7953
:10596800A24209D91868E119424601340368DB6983
:1059780098470028F1D1CBE79B794FF40072696909
:1059880002FA03F311FA83F36B61C2E7FFFD1F000C
:1059980010B5044680680A462830A169FEF746FB20
:1059A80020B1A38803F00F0300EB431010BD00BF24
:1059B80030B590F9023083B00446002B19DBA56896
:1059C80005F12800FEF762FB30B96378002043F048
:1059D8000103637003B030BD05F50E70FEF756FB8A
:1059E8000028F2D0286803689B6998470028ECD003
:1059F800F0E70121FFF7CCFF05460028E5D0037842
:105A0800E52BE2D023781B0701D5E369C361236A3C
:105A18000B491A0C6B830B68AA8263B10DF1030260
:105A28000DF1060101A89847BDF80430BDF806201D
:105A38002B836B82EA82A37803F07F03A370BEE70F
:105A48009C1D002010B50378044623B900230120CB
:105A58002370A37010BDFFF7ABFF00232370A37062
:105A680010BD00BF2DE9F0410C7888B014F0700F1C
:105A780003D1002008B0BDE8F08140F602230546B6
:105A88000C4601F0DFF80028F3D001221023284645
:105A9800AA702B70FFF730FF0028EAD02A692B780C
:105AA8002A62002B7FD101212846FFF771FF0746A4
:105AB8000028DED0102300687968EE46FB724FF0AC
:105AC8002E0CBA6808AEFB68B7F81480AEE80F0071
:105AD800BA69FB693869796906F820CD0DF10A0CB5
:105AE8007F8BAEE80F003346202203F8012F634571
:105AF800FBD1A86801222B6A90F806E02830023B07
:105B080050F8141C03FA0EF31944FEF78FFA864670
:105B18000028AED0ADF814804FF02E08ADF81A70FA
:105B280037460FCECEF80000CEF80410CEF8082085
:105B3800CEF80C308DF801800FCECEF81000CEF8DC
:105B48001410CEF81820CEF81C30236A1A0CADF8C1
:105B58001A30ADF814200FCFCEF82000CEF824105C
:105B6800CEF82820CEF82C300FCFCEF83000CEF863
:105B78003410CEF83820CEF83C30AC6804F1280058
:105B8800FEF784FA00283FF474AF04F50E70FEF7B0
:105B98007DFA00283FF46DAF206803689B6908B060
:105BA800BDE8F04118476B6933B1AB78002223F0A8
:105BB80020032A616A61AB702846FFF7F9FE0028C6
:105BC8003FF457AF6FE700BF2DE9F041064692B0AA
:105BD80000200C46317801928DF824008DF82500BC
:105BE8008DF8260021B99846237813F0700F03D159
:105BF800002012B0BDE8F081137810462F2B2DD06D
:105C0800002701AA03A900F0E7FD03AA2146002303
:105C18000028EDD0019D30462D78002D30D001F0C0
:105C280011F848B9B8F1000FE2D0214603AA30466E
:105C3800FFF718FF0028DBD0354609AC96F800E0DE
:105C48000FCD0FC40FCD2D680FC42560BEF1000F16
:105C580012D1377009ACB7700198D2E701300190C2
:105C680003782F2BFAD0A16809A8FFF711FE0028A6
:105C7800BED009AC0198C3E73046FFF799FEE8E7C4
:105C880003AA21463046FFF7EDFE12B0BDE8F081C9
:105C98002DE9F041064692B000200D463178019278
:105CA8008DF824008DF825008DF8260021B9984636
:105CB8002B7813F0700F03D1002012B0BDE8F081EB
:105CC800137810462F2B29D0002702E0019837704F
:105CD800B77001AA03A900F07FFD03AA2946002393
:105CE8000028E9D0019C3046247834B300F0AAFF9C
:105CF800354609AC0028DFD096F800E00FCD0FC478
:105D08000FCDD5F800C009AD0FC4C4F800C0BEF16E
:105D1800000FDBD03046FFF74BFED7E7013001908C
:105D280003782F2BFAD08BB1A96809A8FFF7B0FD2B
:105D38000028C1D009AD0198C6E7434603AA294601
:105D4800304600F07FFF12B0BDE8F081A968304608
:105D5800FFF79EFDB1E700BF19B101F58961FFF7B3
:105D680097BF0846704700BF03780BB10020704703
:105D7800FFF78EBD2DE9F04F837883B00546DF0726
:105D880040F190800F46017891460E0700F193800C
:105D98008C0608D5826843691289C3EB42139BB20B
:105DA800994528BF9946B9F1000F00F0AA806B69A0
:105DB80088064E464FF0000805F1100AAA68C3F39A
:105DC800080440D5116A01EB5321002C54D1B6F5D3
:105DD800007F51D3536B99424ED0B6F5806F73D381
:105DE80028784FEA562B800605D41079C8EB0000B6
:105DF800834528BF834699424FEA4B240DD801EBCF
:105E08000B00834209D202F1280001910092FEF7AB
:105E18003DF9009A0199002844D0D06A5B463A4679
:105E2800D0F800E0DEF810B0D84700283AD06B6907
:105E3800361B274423446B6163D02978C3F30804D5
:105E4800AA688806BED492F8058008EA5328002C70
:105E580038D1B8F1000F35D1002B3FD148064CBFDF
:105E6800136A2B6A2B619179023B50698B4008EBCE
:105E780000011944002CAAD002F128000022FEF7E4
:105E8800D5F878B1C4F5007301193846B34228BF74
:105E980033461A461C4602F0F7FEC8E72B7813F083
:105EA800700F2FD16B784FF0FF3043F002036B7007
:105EB80003B0BDE8F08FC36942699B1A994528BFB2
:105EC800994670E72B69CEE7D06A3A460368DB68E3
:105ED80098470028E6D04FF40074A8E7090705D5CD
:105EE800AB785B0602D52B690133BBE710462969FD
:105EF800524601F0B9F80028D4DBCFD0AA682B6944
:105F0800B1E70026C6EB090003B0BDE8F08F00BF7B
:105F180070B582B00122044646690DF10701056992
:105F2800FFF728FF012866610CBF9DF807004FF0B6
:105F3800FF30256102B070BD436930B5C3F3431526
:105F480083B00446B5FA85F252098A4207D2203353
:105F58004361A068383000EB451003B030BD012222
:105F68000DF10701FFF706FF40B2012803D163696D
:105F78001F336361EDE70020EFE700BF2DE9F04331
:105F880005789BB0002415F0180F8DF820408DF887
:105F980021408DF822408DF844408DF845408DF819
:105FA800464004D0866803468D68AE4203D0002080
:105FB8001BB0BDE8F0831D4690460E46FFF7F8FC7F
:105FC800AE4611AFBEE80F000FC7BEE80F00DEF8FF
:105FD80000E00FC721462846C7F800E0FFF7D8FCC5
:105FE80086460028E3D000686F46DEF80410DEF825
:105FF8000820DEF80C3095F800C00FC70CF0080C2C
:10600800DEF81000DEF81410DEF818200CF0FF0996
:10601800DEF81C300FC7BCF1000F00F09680424636
:10602800314640F6012308A8FFF732FE0028BED00B
:106038000E9A0026BDF824300121AA612846AB80BB
:106048009DF823200B9BEA70EB608DF820608DF89B
:106058002260FFF79DFC0028A9D01AAB9DF80B2001
:1060680053F85B7DC272D3F804E0C0F80D709F68E6
:10607800C0F811E0C0F81570D3F80CE01F8A9B7CBB
:10608800C0F819E0A0F81D70C377002C3BD0AF68AA
:10609800A31E3246BE7907F128007969B340194436
:1060A800FDF7C4FF002882D006466F4656F8200F39
:1060B8007168B268F3680FC730697169B269F369CA
:1060C8000FC72146A86801F081F800283FF46FAF98
:1060D800A96801222B6A8C7901F12800023B4969E1
:1060E800A3401944FDF7A2FF074600283FF45FAF1D
:1060F8006C460FCC38627962BA62FB620FCC3863A7
:106108007963BA63FB6300210222082311A819915D
:106118008DF846208DF8443000F0A0FC00283FF4AC
:1061280046AFAC6804F12800FDF7B0FF00283FF443
:106138003EAF04F50E70FDF7A9FF00283FF437AF16
:10614800206803689B69984732E74B4642463146C8
:1061580008A8FFF739FD00283FF429AF109C67E72E
:106168000378DA061AD5436910B5044633B1837843
:10617800002223F02003026142618370012120463E
:10618800FFF7DAFE60B103786BB1E52BF6D02E2B62
:10619800F4D0C37A1B07F1D4002010BD002070474B
:1061A8006378002BF8D1A3780822204643F0020335
:1061B8002270A370BDE8104000F050BC2DE9F041FA
:1061C800037804460769B3B10D464169A9422CD04A
:1061D80045B98378056123F0200365610120A37028
:1061E800BDE8F08118070AD49A060BD5A3681B8965
:1061F800B5EB431F30D927610020BDE8F081E26983
:106208009542F8D8D4F808E06E1EA2789EF80600E9
:1062180012F0400F00F10900C0B226FA00F607D0CC
:10622800216A13460E442661D5E70120BDE8F081B6
:106238004A1E22FA00F0864210D379B1361A04F1C8
:10624800100806E02169013EA06800F00DFF002853
:10625800D1DD4246002EF5D1A378BCE75B064CBFE2
:10626800DEF82030236A2361E9E700BF2DE9F04119
:106278000D4690460021242204461F469DF81860CA
:1062880005F0B2F9A86808F00F03296A00F138028E
:10629800A060E16002EB4312A4F80480D17A0D07F4
:1062A80011D401F017012170D37A13F0180F02D11D
:1062B80041F00801217007F00303E670012B08D0B4
:1062C800022B2AD023B3002323701846A370BDE8FD
:1062D800F0810223A370217811F0110FF3D159B284
:1062E80007F4806507F008030B43DBB2A370B2F82C
:1062F80014E0518B466B41EA0E41A66185B1D1B9D4
:1063080063F07F03A3707B040ED40120BDE8F08105
:1063180017F48065D7D10121E4E70323A370DAE7F6
:106328002162D369E361EEE7E1692046FFF746FFA2
:106338000028EAD1C7E700F049FF0028C3D0A378B6
:10634800DEE700BF03781BB90B7813F0700F01D19B
:10635800002070472DE9F0474E6982B016F01F07FC
:1063680021D191460D468046BA460DE0A3F1E502DB
:10637800B2FA82F2520982B9C17A11F0080F1DD01F
:106388000F2914D017466E6900212846FFF7D4FD5F
:1063980048B103783BB12E2BE8D10027F3E700F092
:1063A80077F950450CD0002002B0BDE8F0875A06B6
:1063B800E9D503F01F0790F80DA0E4E7002FEED110
:1063C80000974B46C6F34F1229464046FFF74EFF4B
:1063D800EAE700BF03780BB1FFF7EABA012070477C
:1063E80083789B071AD5036AB3B1016910B50446CF
:1063F80082B0F1B9019301621946A06800F0E6FE87
:10640800A8B1A378616963F07F032278E161A37082
:10641800EAB9012002B010BD012070470020704782
:106428006FF070422169A06800F056FE58B900204C
:10643800F0E7002302AA806842F8043D00F014FE49
:106448000028F4DBECD1019B002BDAD0D4E72046FE
:10645800FFF7AEFADEE700BF2DE9F84F8378044670
:106468009D0707D463784FF0FF3043F00103637052
:10647800BDE8F88F90461A070F4600F1D18062698F
:10648800D3439845EED8B8F1000F00F0D0804646C7
:106498004FF0000A4FF0FF393DE0BBF1000F41D14A
:1064A8002169002973D0A3785B0640F19180E369E4
:1064B800934240F28D804B1C0139236190F806E02D
:1064C800436901FA0EF12B441944B6F5007F3CD21A
:1064D800B6F5007F354628BF4FF40075E36993424F
:1064E80002D9A3789B062ED505222830FDF79EFDFC
:1064F8000028B7D05844AB442A46394602F0C4FBBA
:10650800BBF5007F00F084806269761B2F442A4423
:10651800626100F08C80A068C2F3080B457915EA27
:106528005225BAD0236990F806E0991E436901FA0A
:106538000EFEE9187144BBF1000FC6D0CBF500750B
:10654800B54228BF35460122CFE7B6F5806F31D373
:1065580090F804E0730A426BC5EB0E05AB4228BF06
:106568002B468A424FEA432507D303EB010E7245B7
:1065780003D280F828A0C0F83490C06A3A46D0F810
:1065880000E0DEF820B0D8470028BDD16AE7216ACC
:1065980079B32161023982794369B6F5007F01FA3E
:1065A80002F11944D1D2CBF500756269B54228BF12
:1065B800354693E7436B8B4225D0C06A3A46036859
:1065C800DB69984700283FF44DAF4FF400759BE70F
:1065D80004F1100200F048FD0028FFF643AF05D192
:1065E8002046FFF76FF900283FF43CAF2169A06807
:1065F800D0E72046FFF766F900283FF433AF21695A
:10660800A0682162C6E780F828A0C0F83490D4E7D3
:10661800A0682830FDF73AFD00287FF475AF21E720
:10662800C169FFF7CBFD00283FF41CAF27E7E369FA
:10663800934209D30A4B1B6873B1A378404663F0B1
:106648007F03A370BDE8F88FA3784046E26163F04A
:106658007F03A370BDE8F88F4046BDE8F88F00BF00
:106668009C1D002004290BD90A2905D90C290CD80E
:1066780000EB4101C888704700EB410188887047EA
:1066880000EB4101B1F8010070470020704700BFDE
:1066980010B404460020621E0A34430812F8011F91
:1066A80043EAC010944251FA80F0C0B2F5D15DF8C7
:1066B800044B704738B5CB6873B10C4624220021CF
:1066C800054604F091FF102301202B70A870A268E2
:1066D800E368AA602B6238BD8968BDE83840FFF7D7
:1066E80043BB00BF2DE9F04F00238DB091460278DF
:1066F80088468DF80C308DF80D308DF80E30002A54
:106708005AD0B9F10C0F8CBF00240124002C53D1AE
:10671800C3780746002B55D0394603A8FFF7CAFFB0
:10672800002849D0FB78002B46D0012609F1FF3517
:106738000194B98803A8891B4901FFF73FFD002888
:106748003AD0002103A8FFF7F7FB8346A0B3C37A2A
:106758000F2B31D1037803F01F039E422CD1731EF7
:1067680003EB430403EB8404234608EB040A04F117
:106778000D02191B5846C9B2FFF774FF3F2130B309
:106788009D4224D97E2803F1010398BFC1B29342E8
:106798000AF8011BEDD191459DF8043098BF2A46AF
:1067A80008F8023042B19BF800305B0611D401367C
:1067B800FB78F6B2B342BCD2002088F800000DB0D6
:1067C800BDE8F08F00F00CFC0DB0BDE8F08F1A4664
:1067D800E1E71046F3E700BF2DE9F04F0378202BDF
:1067E80003D110F8013F202BFBD0886003782F2BB2
:1067F80000F02281002B00F01F815C2B25D0A3F133
:106808002204E4B21A2C23D9461C0025DFF848E2FA
:1068180003E01A2C2EFA04F722D9A3F13E0401351D
:10682800A3F1200CB046012C2F460ED97C2B0CD09E
:10683800BCF15E0F09D816F8013BA3F122042F2BF7
:10684800E4B212D08BB15C2BE3D10020BDE8F08F0D
:10685800814D25FA04F4E507D6D50020BDE8F08F70
:10686800FC07DAD50020BDE8F08F202B02D02F2BB3
:1068780040F0DF806B1C03441E4613F8014B202CAC
:10688800FAD02F2CF8D01660B5B1074417F8013CA0
:10689800202B01D02E2B0AD16B1EC4181D465BB1CC
:1068A80014F8012D013B2E2AF8D0202AF6D0FF2D0E
:1068B800CBDC2F466C1E02E04FF0FF342F4601F16F
:1068C8000C0301F1170620224F6003F8012FB34291
:1068D800FBD103782E2B02D0202B40F0A680064651
:1068E800002316F8012F01332E2AFAD0202AF8D0D7
:1068F8004FF0000E621C0BD0065D02192E2E04D13B
:1069080006E012F8016D2E2E02D014F1FF34F8D2F1
:106918009D424FF0000940F39C804FF0070C4FF068
:1069280008084E46CA46C25C202A03D02E2A17D130
:106938009C4215D04FF0000E0133AB42F3DB4B7B8A
:10694800202B82D0BEF1000F57D01AEA090F4FF062
:10695800010018BF4FF0020981F80090BDE8F08FE0
:10696800222A07D07C2A05D0A2F12A07052F14D89D
:106978002D2A12D09C421CD0664594BF00220122C9
:10698800A2BB96465F22771C01EB060BFEB28BF882
:106998000D20062ED0D80E73CEE7A2F13A07052FA8
:1069A800E8D9A2F15B07022FE4D9A2F121075D2FF4
:1069B800E0D89C420AD0664508D8A2F16107192F91
:1069C8002CD8203A48EA0909D2B2DCE7BCF10A0F10
:1069D8000FD09C421BD09C420BDB23464FF00A0C85
:1069E80008264FF010084FF0000EA5E7BCF10A0F7B
:1069F800F1D14B7B202B3FF428AF0B7B01207E2469
:106A080031220B4408705C739A73BDE8F08F2346FB
:106A18004FF00A0C08264FF010088DE7A2F1410745
:106A2800192FB0D848EA0A0AADE74FF0010E002343
:106A380060E7C2F8008028E72F2B4FF0000701D04D
:106A4800202B01D13D4615E710604FF0FF343D463D
:106A580035E7CA4673E700BF010100052DE9F0419B
:106A680082788AB0002392078DF804308DF80530BB
:106A78008DF8063022D5016A054621BB012128463A
:106A8800FEF786FFD0B1411E00F10A070024620814
:106A980011F8016F42EAC4138F4256FA83F3DCB24D
:106AA800F5D14FF0E508002380F80080AE682B7020
:106AB80006F12800AB70FDF7E9FA50B90026304618
:106AC8000AB0BDE8F081806800F080FB0028D5D1CD
:106AD800F4E706F50E70FDF7D9FA0028EED0306815
:106AE80003689B69984706460028E7D0EB78002B97
:106AF800E5D0294601A8FFF7DDFD0028DED0EB78B8
:106B0800002BDBD001271FE001A8FFF715FA7B1C3B
:106B18000028D3D0C27A0F2AD0D1027802F01F0100
:106B28008F42DFB2CAD1437BA342C7D180F800802D
:106B3800A96891F8283043F0010381F828305306FA
:106B48000CD4EB78BB42B9D3A98801A8C91B490169
:106B5800FFF734FB00210028D6D1AFE7AC6804F179
:106B68002800FDF793FA0028A8D004F50E70FDF769
:106B78008DFA0028A2D0206803689B6998470028EE
:106B88009CD09CE72DE9F8430E4604464FF00208D6
:106B98004FF07E090F7B01F10D057068B16808EBB5
:106BA80000039BB248B1084411F8012B03EB4313CF
:106BB800884283EA02039BB2F6D1032F28BF03273A
:106BC8003A1DD2B203F00F0102F1FF3E1B09092959
:106BD80001F1370098BF01F13000B1185FFA8EF269
:106BE80048739742EED3F3190021204683F80D909D
:106BF800FFF7E4FA01212046FFF79EF90B2203462E
:106C0800B0B190F800E001462846BEF1000F15D05B
:106C1800DB7A1B07EED404F0B5FC0028EAD108F1B2
:106C280001081FFA88F8B8F1640FB6D1BDE8F883F7
:106C38006078B0FA80F04009BDE8F8830120BDE82B
